:0300000002037484
:0C037400787FE4F6D8FD75813D0203BBE4
:10040000E4FAEF6405703343F620C2F8C2F9D2FA79
:1004100043E180C2FCD2FBADF8EDC413135403FDDD
:10042000AFE2AB07EB7E007802C333CE33CED8F910
:100430007C002DFBEC3EAF03FE22EF6406703443DC
:10044000F640D2F8C2F9D2FA43E180C2FCD2FBAD49
:10045000F8EDC413135403FDAFE27A00AB07EB7E53
:10046000007802C333CE33CED8F97C002DFBEC3EAE
:03047000FEAF03D9
:010473002266
:1007130075DCC0753A00753B1DE53AF5D1E53BF54F
:02072300D922D9
:10059A00EF1460191460251460312403703B753A16
:1005AA0000753B0DE53AF5D2E53BF5DA22753A01DD
:1005BA00753B00E53AF5D3E53BF5DB22753A007564
:1005CA003B80E53AF5D5E53BF5DD22753A00753B0A
:0A05DA0040E53AF5D6E53BF5DE22D8
:08000300E4FF12059A02071345
:020626008F2C17
:10062800C2A07F647E0012068FD2A07F967E001241
:10063800068FE4F52DE52DC3952C5016D2A17F1415
:100648007E001206FBC2A17F147E001206FB052D58
:0206580080E33D
:01065A00227D
:1006CA00C294C2A1C2A07F647E001206FBD2A07FA0
:0906DA00647E001206FBD294229A
:10072500D2947F041206267F967E001206AFC294ED
:0107350022A1
:10073600D2947F031206267F8C7E001206AFC294E7
:010746002290
:10074700D2947F021206267F787E001206AFC294EB
:01075700227F
:10075800D2947F091206267F787E001206AFC294D3
:01076800226E
:10076900D2947F0E1206267F787E001206AFC294BD
:01077900225D
:10077A00D2947F071206267F507E001206AFC294DB
:01078A00224C
:10078B00D2947F0B1206267F327E001206AFC294E4
:01079B00223B
:06054F00023C0000C1891E
:10065B001206CA7D647C007F32120474D2A4D2903D
:10066B00C2947F061204008E3C8F3DE4F508F50919
:10067B00C202D2A7C2937F03FE1206AF12078B12E0
:04068B00079C80FB4D
:1006AF00EF1FAA0670011E4A60107C137D88ED1D96
:0A06BF00AA0470011C4A60E880F4F0
:0106C900220E
:1006E300E4FDFCC3ED9FEC9E500DE4FB0BBB2AFC29
:0706F3000DBD00010C80ECBD
:0106FA0022DD
:10068F00E4FDFCC3ED9FEC9E5015E4FBFA0BBB00A1
:0F069F00010AEB64644A70F50DBD00010C80E4A4
:0106AE002229
:1006FB00E4FDFCC3ED9FEC9E500DE4FB0BBB04FC37
:07070B000DBD00010C80ECA4
:0107120022C4
:0905550007330000000000000063
:1004E600D2937F027E001206AFC2A77533C8753459
:1004F600E07535C11205E4E4F52EE4F52F743325D5
:100506002EF8E630E706C2907F788004C2907F3CE2
:100516007E001206E3D2907433252EF8C000E6253D
:10052600E0D000F67F327E001206E3052FE52FC3EA
:10053600940840C9052EE52EC3940340BDD2A77F7B
:08054600027E001206AFC29311
:01054E00228A
:1005E4007532AAE4F531E4F530E532C2907F507EED
:1005F400001206E3D290E53225E0F5327F967E00C4
:100604001206E30530E530C3940840DD7532AA7F55
:10061400507E001206E30531E531C3940340C7D28E
:010624009045
:0106250022B2
:0C000E00C2A47F0A7E001206AFD2A4221A
:10055E00C104010C00C107011E00C1020208000007
:10056E00C105C106C101021A0000010A00070D00F3
:10057E00000000000000C103011400010B00011572
:0B058E0000C180011C00011D00C1081D
:03000B0002029955
:10029900C0E0C0F0C083C082C0D075D000C000C02B
:1002A90001C002C003C004C005C006C00785168C82
:1002B90085188A051BE51B7002051AC3943CE51ACB
:1002C900940040377F061204008E3C8F3D3009129E
:1002D900D3E53D9433E53C94035007C2091207580E
:1002E9008013200910C3E53D945AE53C9403400569
:1002F900D209120769751A00751B0030022C05090D
:10030900E50970020508C39403E508940050081232
:10031900072512000E8013C3E50994B0E50894047B
:100329004008750800750900C2023007081207362F
:1003390012000EC20730040812074712000EC20449
:1003490030010512077AC20130080512078BC2086D
:10035900D007D006D005D004D003D002D001D000F8
:0B036900D0D0D082D083D0F0D0E032A2
:03001B0002016877
:10016800C0E0C0F0C083C082C0D075D000C000C05D
:1001780001C002C003C004C005C006C00785178DB2
:1001880085198B20910EC200051DE51D64787054F9
:10019800F51D805020003CD200E51DD39423401566
:1001A800E51DD39450500EE50B25E0F50B530BFEDF
:1001B8000515751C00E51DD394504010E50B25E08E
:1001C800F50B430B010515751C008002051C751DF8
:1001D800008011051CE51CC3943C4008751500D22D
:1001E80000751400E51564087032F515740D2514B2
:1001F800F8A60BE514700AE50DB4C805751401805E
:100208001BE514B4010AE50EB4E005751402800C70
:10021800E514B40204D2038000751400300357C2F9
:1002280003E50F243E601814601C14602514603325
:100238001460412405703F12000E1204E68037D284
:100248000812000E8030D20212000E751E00C2077E
:10025800800AD207750800750900C202750C00C231
:10026800048013D204750800750900C202751E00C7
:10027800C2078002D201D007D006D005D004D0032F
:10028800D002D001D000D0D0D082D083D0F0D0E03E
:010298003233
:040474008C228D2326
:100478007E007C2B7D3312013BE47B0CFAF9F812E9
:1004880000A98F278E268D258C24C3E49FFFE49E28
:10049800F5168F18AE22AF23EE3395E0FDFCE47B12
:1004A8000BFAF9F812001EE47B0CFAF9F81200A90D
:1004B8008F2B8E2A8D298C28C3E49FFFE49EF51785
:1004C8008F1975891185168C85188A85178D851958
:0D04D8008BD2A9D28CD2ABD28ED2BBD2AFC8
:0104E50022F4
:04079C00438701226C
:1003800002065BE493A3F8E493A34003F68001F232
:1003900008DFF48029E493A3F85407240CC8C3337E
:1003A000C4540F4420C8834004F456800146F6DF4D
:1003B000E4800B010204081020408090054FE47E89
:1003C000019360BCA3FF543F30E509541FFEE49342
:1003D000A360010ECF54C025E060A840B8E493A309
:1003E000FAE493A3F8E493A3C8C582C8CAC583CA34
:1003F000F0A3C8C582C8CAC583CADFE9DEE780BEEC
:010599000061
:10001E00E88FF0A4CC8BF0A42CFCE98EF0A42CFC81
:10002E008AF0EDA42CFCEA8EF0A4CDA8F08BF0A4FF
:10003E002DCC3825F0FDE98FF0A42CCD35F0FCEB5E
:10004E008EF0A4FEA9F0EB8FF0A4CFC5F02ECD3923
:0F005E00FEE43CFCEAA42DCE35F0FDE43CFC2290
:10006D0075F008758200EF2FFFEE33FECD33CDCC4A
:10007D0033CCC58233C5829BED9AEC99E5829840CD
:10008D000CF582EE9BFEED9AFDEC99FC0FD5F0D6AA
:10009D00E4CEFBE4CDFAE4CCF9A88222B800C1B9D4
:1000AD000059BA002DEC8BF084CFCECDFCE5F0CB12
:1000BD00F97818EF2FFFEE33FEED33FDEC33FCEB4B
:1000CD0033FB10D703994004EB99FB0FD8E5E4F906
:1000DD00FA227818EF2FFFEE33FEED33FDEC33FCF3
:1000ED00C933C910D7059BE99A4007EC9BFCE99AE7
:1000FD00F90FD8E0E4C9FAE4CCFB2275F010EF2F2C
:10010D00FFEE33FEED33FDCC33CCC833C810D7072B
:10011D009BEC9AE899400AED9BFDEC9AFCE899F866
:0E012D000FD5F0DAE4CDFBE4CCFAE4C8F922F9
:10013B00EC8EF0A4CCC5F0CCCDF8EFA4CEC5F02D51
:10014B00FDE43CFCE8A42EC8C5F03DFDE43CFCEF0F
:0D015B00A4FFE5F028FEE43DFDE43CFC229D
:00000001FF
