:0300000002037C7C
:0C037C00787FE4F6D8FD75813D0203C3D4
:10040800E4FAEF6405703343F620C2F8C2F9D2FA71
:1004180043E180C2FCD2FBADF8EDC413135403FDD5
:10042800AFE2AB07EB7E007802C333CE33CED8F908
:100438007C002DFBEC3EAF03FE22EF6406703443D4
:10044800F640D2F8C2F9D2FA43E180C2FCD2FBAD41
:10045800F8EDC413135403FDAFE27A00AB07EB7E4B
:10046800007802C333CE33CED8F97C002DFBEC3EA6
:03047800FEAF03D1
:01047B00225E
:10071D0075DCC0753A00753B1DE53AF5D1E53BF545
:02072D00D922CF
:1005A400EF1460191460251460312403703B753A0C
:1005B40000753B0DE53AF5D2E53BF5DA22753A01D3
:1005C400753B00E53AF5D3E53BF5DB22753A00755A
:1005D4003B80E53AF5D5E53BF5DD22753A00753B00
:0A05E40040E53AF5D6E53BF5DE22CE
:08000300E4FF1205A402071D31
:020630008F2C0D
:10063200C2A07F647E00120699D2A07F967E00122D
:100642000699E4F52DE52DC3952C5016D2A17F1401
:100652007E00120705C2A17F147E00120705052D38
:0206620080E333
:010664002273
:1006D400C294C2A1C2A07F647E00120705D2A07F8B
:0906E400647E00120705D2942285
:10072F00D2947F041206307F967E001206B9C294CF
:01073F002297
:10074000D2947F031206307F8C7E001206B9C294C9
:010750002286
:10075100D2947F021206307F787E001206B9C294CD
:010761002275
:10076200D2947F091206307F787E001206B9C294B5
:010772002264
:10077300D2947F0E1206307F787E001206B9C2949F
:010783002253
:10078400D2947F071206307F507E001206B9C294BD
:010794002242
:10079500D2947F0B1206307F327E001206B9C294C6
:0107A5002231
:1007A600D2947F0F1206307F327E001206B9C294B1
:0107B6002220
:06055700023C0000C18A15
:100665001206D47D647C007F3212047CD2A4D29021
:10067500C2947F061204088E3C8F3DE4F508F50907
:10068500C202D2A7C2937F03FE1206B912079512C2
:0406950007B780FB28
:1006B900EF1FAA0670011E4A60107C137D88ED1D8C
:0A06C900AA0470011C4A60E880F4E6
:0106D3002204
:1006ED00E4FDFCC3ED9FEC9E500DE4FB0BBB2AFC1F
:0706FD000DBD00010C80ECB3
:0107040022D2
:10069900E4FDFCC3ED9FEC9E5015E4FBFA0BBB0097
:0F06A900010AEB64644A70F50DBD00010C80E49A
:0106B800221F
:10070500E4FDFCC3ED9FEC9E500DE4FB0BBB04FC2C
:070715000DBD00010C80EC9A
:01071C0022BA
:09055D000733000000000000005B
:1004EE00D2937F027E001206B9C2A77533C8753447
:1004FE00E07535C11205EEE4F52EE4F52F743325C3
:10050E002EF8E630E706C2907F788004C2907F3CDA
:10051E007E001206EDD2907433252EF8C000E6252B
:10052E00E0D000F67F327E001206ED052FE52FC3D8
:10053E00940840C9052EE52EC3940340BDD2A77F73
:08054E00027E001206B9C293FF
:010556002282
:1005EE007532AAE4F531E4F530E532C2907F507EE3
:1005FE00001206EDD290E53225E0F5327F967E00B0
:10060E001206ED0530E530C3940840DD7532AA7F41
:10061E00507E001206ED0531E531C3940340C7D27A
:01062E00903B
:01062F0022A8
:0C000E00C2A47F0A7E001206B9D2A42210
:10056600C105010C00C108011E00C10202080000FD
:10057600C106C107C101021A0000010A00070D00E9
:10058600000000000000C103011400010B0001156A
:0D05960000C180011C00011D00C109C1044D
:03000B0002029955
:10029900C0E0C0F0C083C082C0D075D000C000C02B
:1002A90001C002C003C004C005C006C00785168C82
:1002B90085188A051BE51B7002051AC3943CE51ACB
:1002C900940040377F061204088E3C8F3D300A1295
:1002D900D3E53D9433E53C94035007C20A12076203
:1002E9008013200A10C3E53D945AE53C9403400568
:1002F900D20A120773751A00751B0030022C050902
:10030900E50970020508C39403E508940050081232
:10031900072F12000E8013C3E50994B0E508940471
:100329004008750800750900C20230080812074024
:1003390012000EC20830050812075112000EC2053C
:10034900300105120784C201300905120795C20957
:100359003004051207A6C204D007D006D005D00480
:10036900D003D002D001D000D0D0D082D083D0F039
:03037900D0E0329F
:03001B0002016877
:10016800C0E0C0F0C083C082C0D075D000C000C05D
:1001780001C002C003C004C005C006C00785178DB2
:1001880085198B20910EC200051DE51D64787054F9
:10019800F51D805020003CD200E51DD39423401566
:1001A800E51DD39450500EE50B25E0F50B530BFEDF
:1001B8000515751C00E51DD394504010E50B25E08E
:1001C800F50B430B010515751C008002051C751DF8
:1001D800008011051CE51CC3943C4008751500D22D
:1001E80000751400E51564087032F515740D2514B2
:1001F800F8A60BE514700AE50DB4C805751401805E
:100208001BE514B4010AE50EB4E005751402800C70
:10021800E514B40204D2038000751400300357C2F9
:1002280003E50F243E60181460191460221460302E
:1002380014603E2405703F12000E1204EE8037D27F
:10024800098030D20212000E751E00C208800AD240
:1002580008750800750900C202750C00C2058016F1
:10026800D205750800750900C202751E00C2088013
:1002780005D20412000ED007D006D005D004D00352
:10028800D002D001D000D0D0D082D083D0F0D0E03E
:010298003233
:04047C008C228D231E
:100480007E007C2B7D3312013BE47B0CFAF9F812E1
:1004900000A98F278E268D258C24C3E49FFFE49E20
:1004A000F5168F18AE22AF23EE3395E0FDFCE47B0A
:1004B0000BFAF9F812001EE47B0CFAF9F81200A905
:1004C0008F2B8E2A8D298C28C3E49FFFE49EF5177D
:1004D0008F1975891185168C85188A85178D851950
:0D04E0008BD2A9D28CD2ABD28ED2BBD2AFC0
:0104ED0022EC
:0407B7004387012251
:10038800020665E493A3F8E493A34003F68001F220
:1003980008DFF48029E493A3F85407240CC8C33376
:1003A800C4540F4420C8834004F456800146F6DF45
:1003B800E4800B0102040810204080900557E47E79
:1003C800019360BCA3FF543F30E509541FFEE4933A
:1003D800A360010ECF54C025E060A840B8E493A301
:1003E800FAE493A3F8E493A3C8C582C8CAC583CA2C
:1003F800F0A3C8C582C8CAC583CADFE9DEE780BEE4
:0105A3000057
:10001E00E88FF0A4CC8BF0A42CFCE98EF0A42CFC81
:10002E008AF0EDA42CFCEA8EF0A4CDA8F08BF0A4FF
:10003E002DCC3825F0FDE98FF0A42CCD35F0FCEB5E
:10004E008EF0A4FEA9F0EB8FF0A4CFC5F02ECD3923
:0F005E00FEE43CFCEAA42DCE35F0FDE43CFC2290
:10006D0075F008758200EF2FFFEE33FECD33CDCC4A
:10007D0033CCC58233C5829BED9AEC99E5829840CD
:10008D000CF582EE9BFEED9AFDEC99FC0FD5F0D6AA
:10009D00E4CEFBE4CDFAE4CCF9A88222B800C1B9D4
:1000AD000059BA002DEC8BF084CFCECDFCE5F0CB12
:1000BD00F97818EF2FFFEE33FEED33FDEC33FCEB4B
:1000CD0033FB10D703994004EB99FB0FD8E5E4F906
:1000DD00FA227818EF2FFFEE33FEED33FDEC33FCF3
:1000ED00C933C910D7059BE99A4007EC9BFCE99AE7
:1000FD00F90FD8E0E4C9FAE4CCFB2275F010EF2F2C
:10010D00FFEE33FEED33FDCC33CCC833C810D7072B
:10011D009BEC9AE899400AED9BFDEC9AFCE899F866
:0E012D000FD5F0DAE4CDFBE4CCFAE4C8F922F9
:10013B00EC8EF0A4CCC5F0CCCDF8EFA4CEC5F02D51
:10014B00FDE43CFCE8A42EC8C5F03DFDE43CFCEF0F
:0D015B00A4FFE5F028FEE43DFDE43CFC229D
:00000001FF
