:030000000206668F
:0C066600787FE4F6D8FD75815F0206ADD8
:1006F200E4FAEF6405703343F620C2F8C2F9D2FA85
:1007020043E180C2FCD2FBADF8EDC413135403FDE8
:10071200AFE2AB07EB7E007802C333CE33CED8F91B
:100722007C002DFBEC3EAF03FE22EF6406703443E7
:10073200F640D2F8C2F9D2FA43E180C2FCD2FBAD54
:10074200F8EDC413135403FDAFE27A00AB07EB7E5E
:10075200007802C333CE33CED8F97C002DFBEC3EB9
:03076200FEAF03E4
:010765002271
:100DFA0075DCC0751E00751F1DE51EF5D1E51FF5D2
:020E0A00D922EB
:100AC300EF1460191460251460312403703B751E04
:100AD30000751F0DE51EF5D2E51FF5DA22751E011F
:100AE300751F00E51EF5D3E51FF5DB22751E0075A6
:100AF3001F80E51EF5D5E51FF5DD22751E00751F68
:0A0B030040E51EF5D6E51FF5DE22E1
:08000300E4FF120AC3020DFA2A
:03045000015F0148
:020C86008F14C9
:100C8800C2A07F647E00120CE7D2A07F967E00127D
:100C98000CE7E4F515E515C395145016D2A17F1499
:100CA8007E00120D88C2A17F147E00120D880515E2
:020CB80080E3D7
:010CBA002217
:100D3F00C294C2A1C2A07F5E7E01120D88D2A07F95
:090D4F005E7E01120D88D294228F
:100A6E00E55F24FE602F04704BD2947F0E120C862D
:100A7E007F1E7E00120D247F12120C867F1E7E00BA
:100A8E00120D247F0B120C867F327E00120D24C2B3
:100A9E0094755F0222D2947F0E120C867F197E000F
:100AAE00120D247F0C120C867F327E00120D24C292
:050ABE0094755F0122A8
:100E0C00D2947F06120C867F3C7E00120D24C29475
:010E1C0022B3
:100DA000D2947F02120C867F3C7E00120D24C294E6
:070DB0007F0A7E00020D2402
:100DB700D2947F1B120C867F467E00120D24C294AC
:070DC7007F1E7E00020D24D7
:100E1D00D2947F03120C867FA07E00120D24C29403
:010E2D0022A2
:100DCE00D2947F16120C867FA07E00120D24C29440
:070DDE007F147E00020D24CA
:100E2E00D2947F17120C867F327E00120D24C2944C
:010E3E002291
:100D0700D2947F18120C867F327E00120D247F0D3D
:0D0D1700120C867F467E00120D24C294222D
:100E3F00D2947F13120C867F507E00120D24C29421
:010E4F002280
:100C50007D647C007F01120766C2A5C216120D3F9B
:100C6000C294D284D283D290C20FD287D209D2A7A3
:100C7000C293755206D2A2D2A3D2A6D211C281D2F9
:060C80008512000E80FB4E
:100D2400EF1FAA0670011E4A60107C137D88ED1D1A
:0A0D3400AA0470011C4A60E880F474
:010D3E002292
:100D5800E4FDFCC3ED9FEC9E500DE4FB0BBB15FCC2
:070D68000DBD00010C80EC41
:010D6F002261
:100D7000E4FDFCC3ED9FEC9E500DE4FB0BBB1AFCA5
:070D80000DBD00010C80EC29
:010D87002249
:100CE700E4FDFCC3ED9FEC9E5015E4FBFA0BBB0043
:0F0CF700010AEB64644A70F50DBD00010C80E446
:010D060022CA
:100D8800E4FDFCC3ED9FEC9E500DE4FB0BBB04FCA3
:070D98000DBD00010C80EC11
:010D9F002231
:100CBB00E4FDE4FEFF0FBF00010EBE07F8BFD0F549
:100CCB000DBD32EEE4FD30920EE4FEFF0FBF0001CE
:0B0CDB000EBE27F8BF10F50DBD32EB78
:010CE60022EB
:0904530007170000000000000082
:100B53007516AAE4F515E4F514E516C2907F507EE8
:100B630000120D58D290E51625E0F5167F967E000B
:100B7300120D580514E514C3940840DD7516AA7FB9
:100B8300507E00120D580515E515C3940340C7D2D6
:010B930090D1
:010B9400223E
:100B95007516AAE4F515E4F514E516C2907F507EA6
:100BA50000120D58D290E51625E0F5167F967E00C9
:100BB500120D580514E514C3940840DD7516AA7F77
:100BC500507E00120D580515E515C3940340C7D294
:010BD500908F
:010BD60022FC
:100BD7007516AAE4F515E4F514E516C2907F507E64
:100BE70000120D58D290E51625E0F5167F967E0087
:100BF700120D580514E514C3940840DD7516AA7F35
:100C0700507E00120D580515E515C3940340C7D251
:010C1700904C
:010C180022B9
:1007D800D293D2A6C2A77517C87518E07519C112A9
:1007E8000B95E4F55DE4F55E7417255DF8E630E7F2
:1007F80006C2907F788004C2907F507E00120D70F0
:10080800D2907417255DF8C000E625E0D000F67F89
:10081800327E00120D70055EE55EC3940840C9057E
:0E0828005DE55DC3940340BDD2A7C293D2A686
:01083600229F
:10083700D293C2A6C2A77517C87518E07519C21258
:100847000B95E4F512E4F51374172512F8E630E773
:1008570006C2907F788004C2907F507E00120D7090
:10086700D29074172512F8C000E625E0D000F67F75
:10087700327E00120D700513E513C3940840C905B5
:0E08870012E512C3940340BDD2A7D2A6C293BD
:010895002240
:10089600D293C2A6C2A77517C87518E07519C312F8
:1008A6000B53E4F512E4F51374172512F8E630E756
:1008B60006C2907F788004C2907F507E00120D7031
:1008C600D29074172512F8C000E625E0D000F67F16
:1008D600327E00120D700513E513C3940840C90556
:0E08E60012E512C3940340BDD2A7D2A6C2935E
:0108F40022E1
:1008F500D293C2A6C2A77517C87518E07519C41298
:100905000BD7E4F512E4F51374172512F8E630E772
:1009150006C2907F788004C2907F507E00120D70D1
:10092500D29074172512F8C000E625E0D000F67FB6
:10093500327E00120D700513E513C3940840C905F6
:0E09450012E512C3940340BDD2A7D2A6C293FE
:010953002281
:10095400D293C2A6C2A77517C87518E07519C51237
:100964000BD7E4F512E4F51374172512F8E630E713
:1009740006C2907F788004C2907F507E00120D7072
:10098400D29074172512F8C000E625E0D000F67F57
:10099400327E00120D700513E513C3940840C90597
:0E09A40012E512C3940340BDD2A7D2A6C2939F
:0109B2002222
:1009B300D293C2A6C2A77517C87518E07519C612D7
:1009C3000BD7E4F512E4F51374172512F8E630E7B4
:1009D30006C2907F788004C2907F507E00120D7013
:1009E300D29074172512F8C000E625E0D000F67FF8
:1009F300327E00120D700513E513C3940840C90538
:0E0A030012E512C3940340BDD2A7D2A6C2933F
:010A110022C2
:100A120020910D055BE55BB47803E4F55BC200222F
:100A2200200038D200E55BD394234012E55BD394D7
:100A320050500BE52B25E0F52B532BFE8010E55B88
:100A4200D394504010E52B25E0F52B432B01053EB6
:100A5200E4F55A8002055AE4F55B22055AE55AC3C9
:0C0A6200943C4007E4F53ED200F536223B
:100C1900E53E64087030F53E742F2536F8A62BE5BD
:100C2900367009E52FB4C80475360122E536B401DA
:100C390009E530B4E00475360222E536B40204D27F
:070C4900078000E4F53622EC
:100512008E128F13C3E51394DAE5129402400CD2C3
:10052200947F1C120C867F320205AFC3E51394DA66
:10053200E51294025016C3E51394CDE512940240DD
:100542000BD2947F0A120C867F508061C3E513940C
:10055200CDE51294025016C3E51394C3E51294023A
:10056200400BD2947F09120C867F508040C3E51362
:1005720094C3E51294025016C3E51394B7E512949E
:1005820002400BD2947F08120C867F50801FC3E575
:100592001394B7E5129402501CC3E51394ACE51210
:1005A20094024011D2947F07120C867F507E001273
:1005B2000D24C29422C3E51394ACE51294025003B5
:0405C200120E0C22E7
:0E0E5000C2A2D2A3120CBBD2A2D2A3C2852290
:0E0E5E00D285D2A2C2A3120CBBD2A2D2A32272
:10045C00C105C106C114C116C102C117C10DC10924
:10046C00022D0000C113C110C11201530001540030
:10047C00C10CC18E012A00C11901400001370001D5
:10048C00450002410000015100013D0002550000F1
:10049C00C108C10BC101012400023B00000148004E
:1004AC00015200C10F013F00012600015C00012C2C
:1004BC0000024F0000072F00000000000000C107E1
:1004CC00013600012B00013E00C180015A00015B86
:1004DC0000014B0001490002580000C104014C000E
:1004EC0001570001290002390000C118014A00011E
:1004FC003800C115012500C10302270000C11102FB
:05050C004D0000C10AD2
:03000B0002001ED2
:10001E00C0E0C0F0C083C082C0D075D000C000C0A8
:10002E0001C002C003C004C005C006C00785438CD2
:10003E0085468A0550E5507002054FC394B8E54FCA
:10004E00940B4042754F007550007F061206F28EDB
:10005E00398F3A300C0CE52CC39405500512095417
:10006E00052C30190CE55CC3940550051208F505F6
:10007E005C301512E525C39404500B30A408120809
:10008E0037120E3F052520A413E54C700F7F05FE99
:10009E00120D2420A406120B0D754C0120111F30D9
:1000AE00A41CE54CB401177F057E00120D2430A46C
:1000BE000DAF3AAE39120512754C00120DE5301126
:1000CE0019054EE54E7002054DD394B8E54D940BCF
:1000DE004008C211754D00754E0030800320871503
:1000EE007F027E00120D24308003208708D2117506
:1000FE004D00754E0030102AE553C394045023D2A0
:10010E000530A40E200A0512089680031209B312B8
:10011E000E1D0553E553C394044007755300C210DA
:10012E00C20530122AE554C394045023D20530A4DC
:10013E000E200A0512089680031209B3120DCE0581
:10014E0054E554C394044007755400C212C20520EE
:10015E00840302026120830302026120A5030202CE
:10016E0061E52414602E14606A2402600302022BDF
:10017E0020801B2005180548E548C3940250030251
:10018E00022B754800752401120DA002022B754832
:10019E000002022B2080170537E537C39402401169
:1001AE00753700752402754500120DB7800375373B
:1001BE0000053CE53C7002053BC394A0E53B940F63
:1001CE00405B752400753700754800753B00753C23
:1001DE0000804A208012053DE53DC39402400C7517
:1001EE003D00D210D2128003753D000542E54270EB
:1001FE00020541C394A0E541940F4021752400757A
:10020E004800753700753B00753C0075410075421E
:10021E0000755503755620753D00755100208118E7
:10022E00E538C3943350110538E53894324009D27D
:10023E0010D212753833D20AC3E53994015004D264
:10024E00158010D3E53A9400E53994024005C215A5
:10025E007525003016482084170549E549C39403D7
:10026E004018D219C20C75490B20040ED201800A17
:10027E00C219755C00754900C201208317054BE554
:10028E004BC394034018D20CC219754B0B20040EAD
:10029E00D201800AC20C752C00754B00C2013001D0
:1002AE003C0559E55970020558C394A0E558940FC2
:1002BE00402BC201755800755900D2047524007583
:1002CE004800753700753B00753C0075410075425E
:1002DE0000755503755620753D00755100D007D039
:1002EE0006D005D004D003D002D001D000D0D0D09B
:0802FE0082D083D0F0D0E03281
:03001B000205C615
:1005C600C0E0C0F0C083C082C0D075D000C000C0FB
:1005D60001C002C003C004C005C006C00785448D23
:1005E60085478B120A12120C19300759C207E531DA
:1005F600243F7051E552D39406500320A405D21827
:10060600755200752A00C2A5C216C20CC2197524FD
:1006160000754800753700753B00753C0075410054
:10062600754200755500755600753D00755100C23E
:1006360005C210755300C212755400C20175380008
:10064600C215752500D007D006D005D004D003D03A
:1006560002D001D000D0D0D082D083D0F0D0E0320A
:040766008C088D0965
:10076A007E007C2B7D33120423E47B0CFAF9F81209
:10077A0003918F0D8E0C8D0B8C0AC3E49FFFE49EB0
:10078A00F5438F46AE08AF09EE3395E0FDFCE47BF6
:10079A000BFAF9F8120306E47B0CFAF9F812039142
:1007AA008F118E108D0F8C0EC3E49FFFE49EF544CB
:1007BA008F4775891185438C85468A85448D85477F
:0D07CA008BD2A9D28CD2ABD28ED2BBD2AFD3
:0107D70022FF
:04000E004387012201
:100DE500120E5E120D07D216D2A5E4F524F5487F42
:050DF50014FE020D24B4
:100B0D00C216C2A5120E50120E2EAF3AAE391205F4
:100B1D0012120A6EE4F552C20CC219F524F548F50D
:100B2D0037F53BF53CF541F542F555F556F53DF5F7
:100B3D0051C205C210F553C212F554C201F538C2A7
:060B4D000AC215F5252285
:10067200020C50E493A3F8E493A34003F68001F242
:1006820008DFF48029E493A3F85407240CC8C33389
:10069200C4540F4420C8834004F456800146F6DF58
:1006A200E4800B0102040810204080900450E47E94
:1006B200019360BCA3FF543F30E509541FFEE4934D
:1006C200A360010ECF54C025E060A840B8E493A314
:1006D200FAE493A3F8E493A3C8C582C8CAC583CA3F
:1006E200F0A3C8C582C8CAC583CADFE9DEE780BEF7
:0105110000E9
:10030600E88FF0A4CC8BF0A42CFCE98EF0A42CFC96
:100316008AF0EDA42CFCEA8EF0A4CDA8F08BF0A414
:100326002DCC3825F0FDE98FF0A42CCD35F0FCEB73
:100336008EF0A4FEA9F0EB8FF0A4CFC5F02ECD3938
:0F034600FEE43CFCEAA42DCE35F0FDE43CFC22A5
:1003550075F008758200EF2FFFEE33FECD33CDCC5F
:1003650033CCC58233C5829BED9AEC99E5829840E2
:100375000CF582EE9BFEED9AFDEC99FC0FD5F0D6BF
:10038500E4CEFBE4CDFAE4CCF9A88222B800C1B9E9
:100395000059BA002DEC8BF084CFCECDFCE5F0CB27
:1003A500F97818EF2FFFEE33FEED33FDEC33FCEB60
:1003B50033FB10D703994004EB99FB0FD8E5E4F91B
:1003C500FA227818EF2FFFEE33FEED33FDEC33FC08
:1003D500C933C910D7059BE99A4007EC9BFCE99AFC
:1003E500F90FD8E0E4C9FAE4CCFB2275F010EF2F41
:1003F500FFEE33FEED33FDCC33CCC833C810D70741
:100405009BEC9AE899400AED9BFDEC9AFCE899F87B
:0E0415000FD5F0DAE4CDFBE4CCFAE4C8F9220E
:10042300EC8EF0A4CCC5F0CCCDF8EFA4CEC5F02D66
:10043300FDE43CFCE8A42EC8C5F03DFDE43CFCEF24
:0D044300A4FFE5F028FEE43DFDE43CFC22B2
:00000001FF
