:0300000002068471
:0C068400787FE4F6D8FD75815F0206CB9C
:10071000E4FAEF6405703343F620C2F8C2F9D2FA66
:1007200043E180C2FCD2FBADF8EDC413135403FDCA
:10073000AFE2AB07EB7E007802C333CE33CED8F9FD
:100740007C002DFBEC3EAF03FE22EF6406703443C9
:10075000F640D2F8C2F9D2FA43E180C2FCD2FBAD36
:10076000F8EDC413135403FDAFE27A00AB07EB7E40
:10077000007802C333CE33CED8F97C002DFBEC3E9B
:03078000FEAF03C6
:010783002253
:100D9C0075DCC0751E00751F1DE51EF5D1E51FF530
:020DAC00D9224A
:100A8200EF1460191460251460312403703B751E45
:100A920000751F0DE51EF5D2E51FF5DA22751E0160
:100AA200751F00E51EF5D3E51FF5DB22751E0075E7
:100AB2001F80E51EF5D5E51FF5DD22751E00751FA9
:0A0AC20040E51EF5D6E51FF5DE2223
:08000300E4FF120A82020D9CC9
:03047000015F0128
:020C3F008F1410
:100C4100C2A07F647E00120CA0D2A07F967E00120B
:100C51000CA0E4F515E515C395145016D2A17F1427
:100C61007E00120D41C2A17F147E00120D410515B7
:020C710080E31E
:010C7300225E
:100CF800C294C2A1C2A07F5E7E01120D41D2A07F24
:090D08005E7E01120D41D294221D
:100A2D00E55F24FE602F04704BD2947F0E120C3FB5
:100A3D007F1E7E00120CDD7F12120C3F7F1E7E008A
:100A4D00120CDD7F0B120C3F7F327E00120CDDC2CB
:100A5D0094755F0222D2947F0E120C3F7F197E0097
:100A6D00120CDD7F0C120C3F7F327E00120CDDC2AA
:050A7D0094755F0122E9
:100DAE00D2947F06120C3F7F3C7E00120CDDC29463
:010DBE002212
:100DBF00D2947F02120C3F7F3C7E00120CDDC29456
:010DCF002201
:100D5900D2947F1B120C3F7F467E00120CDDC29499
:070D69007F1E7E00020CDD7D
:100DD000D2947F03120C3F7FA07E00120CDDC294E0
:010DE00022F0
:100D7000D2947F16120C3F7FA07E00120CDDC2942D
:070D80007F147E00020CDD70
:100DE100D2947F17120C3F7F327E00120CDDC29429
:010DF10022DF
:100CC000D2947F18120C3F7F327E00120CDD7F0D14
:0D0CD000120C3F7F467E00120CDDC2942204
:100DF200D2947F13120C3F7F507E00120CDDC294FE
:010E020022CD
:100C09007D647C007F01120784C2A5C215120CF80D
:100C1900C294D284D283D290C20ED287D209D2A7EB
:100C2900C293755206D2A2D2A3D2A6D210C281D241
:060C39008512000E80FB95
:100CDD00EF1FAA0670011E4A60107C137D88ED1D62
:0A0CED00AA0470011C4A60E880F4BC
:010CF70022DA
:100D1100E4FDFCC3ED9FEC9E500DE4FB0BBB15FC09
:070D21000DBD00010C80EC88
:010D280022A8
:100D2900E4FDFCC3ED9FEC9E500DE4FB0BBB1AFCEC
:070D39000DBD00010C80EC70
:010D40002290
:100CA000E4FDFCC3ED9FEC9E5015E4FBFA0BBB008A
:0F0CB000010AEB64644A70F50DBD00010C80E48D
:010CBF002212
:100D4100E4FDFCC3ED9FEC9E500DE4FB0BBB04FCEA
:070D51000DBD00010C80EC58
:010D58002278
:100C7400E4FDE4FEFF0FBF00010EBE1FF8BF40F508
:100C84000DBD32EEE4FD30920EE4FEFF0FBF000115
:0B0C94000EBE46F8BF50F50DBD32EB60
:010C9F002232
:0904730007170000000000000062
:100ACC007516AAE4F515E4F514E516C2907F507E70
:100ADC0000120D11D290E51625E0F5167F967E00DA
:100AEC00120D110514E514C3940840DD7516AA7F88
:100AFC00507E00120D110515E515C3940340C7D2A5
:010B0C009058
:010B0D0022C5
:100B0E007516AAE4F515E4F514E516C2907F507E2D
:100B1E0000120D11D290E51625E0F5167F967E0097
:100B2E00120D110514E514C3940840DD7516AA7F45
:100B3E00507E00120D110515E515C3940340C7D262
:010B4E009016
:010B4F002283
:100B50007516AAE4F515E4F514E516C2907F507EEB
:100B600000120D11D290E51625E0F5167F967E0055
:100B7000120D110514E514C3940840DD7516AA7F03
:100B8000507E00120D110515E515C3940340C7D220
:010B900090D4
:010B91002241
:1007F600D293D2A6C2A77517C87518E07519C1128B
:100806000B0EE4F55DE4F55E7417255DF8E630E75A
:1008160006C2907F788004C2907F507E00120D2918
:10082600D2907417255DF8C000E625E0D000F67F6B
:10083600327E00120D29055EE55EC3940840C905A7
:0E0846005DE55DC3940340BDD2A7C293D2A668
:010854002281
:10085500D293C2A6C2A77517C87518E07519C2123A
:100865000B0EE4F512E4F51374172512F8E630E7DC
:1008750006C2907F788004C2907F507E00120D29B9
:10088500D29074172512F8C000E625E0D000F67F57
:10089500327E00120D290513E513C3940840C905DE
:0E08A50012E512C3940340BDD2A7D2A6C2939F
:0108B3002222
:1008B400D293C2A6C2A77517C87518E07519C312DA
:1008C4000ACCE4F512E4F51374172512F8E630E7C0
:1008D40006C2907F788004C2907F507E00120D295A
:1008E400D29074172512F8C000E625E0D000F67FF8
:1008F400327E00120D290513E513C3940840C9057F
:0E09040012E512C3940340BDD2A7D2A6C2933F
:0109120022C2
:10091300D293C2A6C2A77517C87518E07519C41279
:100923000B50E4F512E4F51374172512F8E630E7DB
:1009330006C2907F788004C2907F507E00120D29FA
:10094300D29074172512F8C000E625E0D000F67F98
:10095300327E00120D290513E513C3940840C9051F
:0E09630012E512C3940340BDD2A7D2A6C293E0
:010971002263
:10097200D293C2A6C2A77517C87518E07519C51219
:100982000B50E4F512E4F51374172512F8E630E77C
:1009920006C2907F788004C2907F507E00120D299B
:1009A200D29074172512F8C000E625E0D000F67F39
:1009B200327E00120D290513E513C3940840C905C0
:0E09C20012E512C3940340BDD2A7D2A6C29381
:0109D0002204
:1009D10020910D055BE55BB47803E4F55BC2002271
:1009E100200038D200E55BD394234012E55BD39419
:1009F10050500BE52B25E0F52B532BFE8010E55BCA
:100A0100D394504010E52B25E0F52B432B01053EF7
:100A1100E4F55A8002055AE4F55B22055AE55AC30A
:0C0A2100943C4007E4F53ED200F536227C
:100BD200E53E64087030F53E742F2536F8A62BE505
:100BE200367009E52FB4C80475360122E536B40122
:100BF20009E530B4E00475360222E536B40204D2C7
:070C0200078000E4F5362233
:100530008E128F13C3E5139426E5129403400CD258
:10054000947F1C120C3F7F320205CDC3E513942229
:10055000E51294035016C3E513940CE5129403407E
:100560000BD2947F0A120C3F7F508061C3E5139435
:1005700009E51294035016C3E51394F3E5129402AF
:10058000400BD2947F09120C3F7F508040C3E5138B
:1005900094F0E51294035016C3E51394DAE512942F
:1005A00002400BD2947F08120C3F7F50801FC3E59E
:1005B0001394D7E5129402501CC3E51394C0E512BE
:1005C00094024011D2947F07120C3F7F507E00129C
:1005D0000CDDC29422C3E51394BDE51294025003CE
:0405E000120DAE2228
:0E0E0300C2A2D2A3120C74D2A2D2A3C2852224
:0E0E1100D285D2A2C2A3120C74D2A2D2A32206
:10047C00C105C106C113C115C102C116C10CC10908
:10048C00022D0000C112C10FC11101530001540013
:10049C00C10BC18D012A00C11801400001370001B8
:1004AC00450002410000015100013D0002550000D1
:1004BC00C108C10AC101012400023B00000148002F
:1004CC00015200C10E013F00012600015C00012C0D
:1004DC0000024F0000072F00000000000000C107C1
:1004EC00013600012B00013E00C180015A00015B66
:1004FC0000014B0001490002580000C104014C00EE
:10050C0001570001290002390000C117014A0001FE
:10051C003800C114012500C10302270000C11002DC
:03052C004D00007F
:03000B0002001ED2
:10001E00C0E0C0F0C083C082C0D075D000C000C0A8
:10002E0001C002C003C004C005C006C00785438CD2
:10003E0085468A0550E5507002054FC394D0E54FB2
:10004E009407402D754F007550007F061207108ED5
:10005E00398F3A300B0CE52CC394055005120972FA
:10006E00052C30180CE55CC39405500512091305D8
:10007E005C20A413E54C700F7F05FE120CDD20A44E
:10008E0006120B92754C0120101F30A41CE54CB4C7
:10009E0001177F057E00120CDD30A40DAF3AAE398C
:1000AE00120530754C00120D87301019054EE54EB5
:1000BE007002054DD394B8E54D940B4008C21075EF
:1000CE004D00754E00308003208708D210754D000C
:1000DE00754E00300F22E553C39404501BD20530E9
:1000EE00A4061208B4120DD00553E553C394044070
:1000FE0007755300C20FC205301122E554C3940494
:10010E00501BD20530A4061208B4120D700554E52A
:10011E0054C394044007755400C211C20530140F25
:10012E00E525C394065008120855120DF205253028
:10013E00010302024220A503020242E524146031AB
:10014E001460702402600302020E30800320871BAD
:10015E002005180548E548C39402500302020E75A7
:10016E004800752401120DBF02020E7548000202EE
:10017E000E3080032087170537E537C394024011F0
:10018E00753700752402754500120D5980037537B9
:10019E0000053CE53C7002053BC394A0E53B940F83
:1001AE00405E752400753700754800753B00753C40
:1001BE0000804D308003208712053DE53DC394023B
:1001CE00400C753D00D20FD2118003753D000542E3
:1001DE00E54270020541C394A0E541940F4021759C
:1001EE002400754800753700753B00753C0075415D
:1001FE0000754200755503755620753D007551000A
:10020E00208116E538C39433500F0538E538943203
:10021E004007D20FD211753833C3E539940150041B
:10022E00D2148010D3E53A9400E53994024005C209
:10023E00147525003015482084170549E549C394E7
:10024E00034018D218C20B75490B20040ED2018040
:10025E000AC218755C00754900C201208317054B50
:10026E00E54BC394034018D20BC218754B0B2004F8
:10027E000ED201800AC20B752C00754B00C20130E4
:10028E00013C0559E55970020558C394A0E55894F0
:10029E000F402BC201755800755900D20475240009
:1002AE00754800753700753B00753C00754100754B
:1002BE004200755503755620753D00755100308707
:1002CE0003208020D3E5289488E527941340157FDA
:1002DE00037E00120CDD308703208008D2037527C1
:1002EE00007528000528E52870020527C39488E5C7
:1002FE002794134008752713752889C203D007D099
:10030E0006D005D004D003D002D001D000D0D0D07A
:08031E0082D083D0F0D0E03260
:03001B000205E4F7
:1005E400C0E0C0F0C083C082C0D075D000C000C0DD
:1005F40001C002C003C004C005C006C00785448D05
:1006040085478B1209D1120BD2300759C207E53145
:10061400243F7051E552D39406500320A405D21709
:10062400755200752A00C2A5C215C20BC2187524E2
:1006340000754800753700753B00753C0075410036
:10064400754200755500755600753D00755100C220
:1006540005C20F755300C211755400C201753800EC
:10066400C214752500D007D006D005D004D003D01D
:1006740002D001D000D0D0D082D083D0F0D0E032EC
:040784008C088D0947
:100788007E007C2B7D33120443E47B0CFAF9F812CB
:1007980003B18F0D8E0C8D0B8C0AC3E49FFFE49E72
:1007A800F5438F46AE08AF09EE3395E0FDFCE47BD8
:1007B8000BFAF9F8120326E47B0CFAF9F81203B1E4
:1007C8008F118E108D0F8C0EC3E49FFFE49EF544AD
:1007D8008F4775891185438C85468A85448D854761
:0D07E8008BD2A9D28CD2ABD28ED2BBD2AFB5
:0107F50022E1
:04000E004387012201
:100D8700120E11120CC0D215D2A5E4F524F5487F36
:050D970014FE020CDD5A
:100B9200C215C2A5120E03120DE1AF3AAE3912050B
:100BA20030120A2DE4F552C20BC218F524F548F5AD
:100BB20037F53BF53CF541F542F555F556F53DF572
:100BC20051C205C20FF553C211F554C201F53822C4
:10069000020C09E493A3F8E493A34003F68001F26B
:1006A00008DFF48029E493A3F85407240CC8C3336B
:1006B000C4540F4420C8834004F456800146F6DF3A
:1006C000E4800B0102040810204080900470E47E56
:1006D000019360BCA3FF543F30E509541FFEE4932F
:1006E000A360010ECF54C025E060A840B8E493A3F6
:1006F000FAE493A3F8E493A3C8C582C8CAC583CA21
:10070000F0A3C8C582C8CAC583CADFE9DEE780BED8
:01052F0000CB
:10032600E88FF0A4CC8BF0A42CFCE98EF0A42CFC76
:100336008AF0EDA42CFCEA8EF0A4CDA8F08BF0A4F4
:100346002DCC3825F0FDE98FF0A42CCD35F0FCEB53
:100356008EF0A4FEA9F0EB8FF0A4CFC5F02ECD3918
:0F036600FEE43CFCEAA42DCE35F0FDE43CFC2285
:1003750075F008758200EF2FFFEE33FECD33CDCC3F
:1003850033CCC58233C5829BED9AEC99E5829840C2
:100395000CF582EE9BFEED9AFDEC99FC0FD5F0D69F
:1003A500E4CEFBE4CDFAE4CCF9A88222B800C1B9C9
:1003B5000059BA002DEC8BF084CFCECDFCE5F0CB07
:1003C500F97818EF2FFFEE33FEED33FDEC33FCEB40
:1003D50033FB10D703994004EB99FB0FD8E5E4F9FB
:1003E500FA227818EF2FFFEE33FEED33FDEC33FCE8
:1003F500C933C910D7059BE99A4007EC9BFCE99ADC
:10040500F90FD8E0E4C9FAE4CCFB2275F010EF2F20
:10041500FFEE33FEED33FDCC33CCC833C810D70720
:100425009BEC9AE899400AED9BFDEC9AFCE899F85B
:0E0435000FD5F0DAE4CDFBE4CCFAE4C8F922EE
:10044300EC8EF0A4CCC5F0CCCDF8EFA4CEC5F02D46
:10045300FDE43CFCE8A42EC8C5F03DFDE43CFCEF04
:0D046300A4FFE5F028FEE43DFDE43CFC2292
:00000001FF
