:0300000002064EA7
:0C064E00787FE4F6D8FD75815F02069508
:1006DA00E4FAEF6405703343F620C2F8C2F9D2FA9D
:1006EA0043E180C2FCD2FBADF8EDC413135403FD01
:1006FA00AFE2AB07EB7E007802C333CE33CED8F934
:10070A007C002DFBEC3EAF03FE22EF6406703443FF
:10071A00F640D2F8C2F9D2FA43E180C2FCD2FBAD6C
:10072A00F8EDC413135403FDAFE27A00AB07EB7E76
:10073A00007802C333CE33CED8F97C002DFBEC3ED1
:03074A00FEAF03FC
:01074D002289
:100D6A0075DCC0751E00751F1DE51EF5D1E51FF562
:020D7A00D9227C
:100A4C00EF1460191460251460312403703B751E7B
:100A5C0000751F0DE51EF5D2E51FF5DA22751E0196
:100A6C00751F00E51EF5D3E51FF5DB22751E00751D
:100A7C001F80E51EF5D5E51FF5DD22751E00751FDF
:0A0A8C0040E51EF5D6E51FF5DE2259
:08000300E4FF120A4C020D6A31
:03043A00015F015E
:020C0D008F1442
:100C0F00C2A07F647E00120C6ED2A07F967E00126F
:100C1F000C6EE4F515E515C395145016D2A17F148B
:100C2F007E00120D0FC2A17F147E00120D0F05154D
:020C3F0080E350
:010C41002290
:100CC600C294C2A1C2A07F5E7E01120D0FD2A07F88
:090CD6005E7E01120D0FD2942282
:1009F700E55F24FE602F04704BD2947F0E120C0D1E
:100A07007F1E7E00120CAB7F12120C0D7F1E7E0024
:100A1700120CAB7F0B120C0D7F327E00120CABC297
:100A270094755F0222D2947F0E120C0D7F197E00FF
:100A3700120CAB7F0C120C0D7F327E00120CABC276
:050A470094755F01221F
:100D7C00D2947F06120C0D7F3C7E00120CABC294F9
:010D8C002244
:100D8D00D2947F02120C0D7F3C7E00120CABC294EC
:010D9D002233
:100D2700D2947F1B120C0D7F467E00120CABC2942F
:070D37007F1E7E00020CABE1
:100D9E00D2947F03120C0D7FA07E00120CABC29476
:010DAE002222
:100D3E00D2947F16120C0D7FA07E00120CABC294C3
:070D4E007F147E00020CABD4
:100DAF00D2947F17120C0D7F327E00120CABC294BF
:010DBF002211
:100C8E00D2947F18120C0D7F327E00120CAB7F0DAA
:0D0C9E00120C0D7F467E00120CABC294229A
:100DC000D2947F13120C0D7F507E00120CABC29494
:010DD0002200
:100BD7007D647C007F0112074EC2A5C215120CC6A8
:100BE700C294D284D283D290C20ED287D209D2A71E
:100BF700C293755206D2A2D2A3D2A6D210C281D274
:060C07008512000E80FBC7
:100CAB00EF1FAA0670011E4A60107C137D88ED1D94
:0A0CBB00AA0470011C4A60E880F4EE
:010CC500220C
:100CDF00E4FDFCC3ED9FEC9E500DE4FB0BBB15FC3C
:070CEF000DBD00010C80ECBB
:010CF60022DB
:100CF700E4FDFCC3ED9FEC9E500DE4FB0BBB1AFC1F
:070D07000DBD00010C80ECA2
:010D0E0022C2
:100C6E00E4FDFCC3ED9FEC9E5015E4FBFA0BBB00BC
:0F0C7E00010AEB64644A70F50DBD00010C80E4BF
:010C8D002244
:100D0F00E4FDFCC3ED9FEC9E500DE4FB0BBB04FC1C
:070D1F000DBD00010C80EC8A
:010D260022AA
:100C4200E4FDE4FEFF0FBF00010EBE07F8BFD0F5C2
:100C52000DBD32EEE4FD30920EE4FEFF0FBF000147
:0B0C62000EBE27F8BF10F50DBD32EBF1
:010C6D002264
:09043D0007170000000000000098
:100ADA007516AAE4F515E4F514E516C2907F507E62
:100AEA0000120CDFD290E51625E0F5167F967E00FF
:100AFA00120CDF0514E514C3940840DD7516AA7FAD
:100B0A00507E00120CDF0515E515C3940340C7D2C9
:010B1A00904A
:010B1B0022B7
:100B1C007516AAE4F515E4F514E516C2907F507E1F
:100B2C0000120CDFD290E51625E0F5167F967E00BC
:100B3C00120CDF0514E514C3940840DD7516AA7F6A
:100B4C00507E00120CDF0515E515C3940340C7D287
:010B5C009008
:010B5D002275
:100B5E007516AAE4F515E4F514E516C2907F507EDD
:100B6E0000120CDFD290E51625E0F5167F967E007A
:100B7E00120CDF0514E514C3940840DD7516AA7F28
:100B8E00507E00120CDF0515E515C3940340C7D245
:010B9E0090C6
:010B9F002233
:1007C000D293D2A6C2A77517C87518E07519C112C1
:1007D0000B1CE4F55DE4F55E7417255DF8E630E783
:1007E00006C2907F788004C2907F507E00120CF782
:1007F000D2907417255DF8C000E625E0D000F67FA2
:10080000327E00120CF7055EE55EC3940840C90510
:0E0810005DE55DC3940340BDD2A7C293D2A69E
:01081E0022B7
:10081F00D293C2A6C2A77517C87518E07519C21270
:10082F000B1CE4F512E4F51374172512F8E630E704
:10083F0006C2907F788004C2907F507E00120CF722
:10084F00D29074172512F8C000E625E0D000F67F8D
:10085F00327E00120CF70513E513C3940840C90547
:0E086F0012E512C3940340BDD2A7D2A6C293D5
:01087D002258
:10087E00D293C2A6C2A77517C87518E07519C31210
:10088E000ADAE4F512E4F51374172512F8E630E7E8
:10089E0006C2907F788004C2907F507E00120CF7C3
:1008AE00D29074172512F8C000E625E0D000F67F2E
:1008BE00327E00120CF70513E513C3940840C905E8
:0E08CE0012E512C3940340BDD2A7D2A6C29376
:0108DC0022F9
:1008DD00D293C2A6C2A77517C87518E07519C412B0
:1008ED000B5EE4F512E4F51374172512F8E630E704
:1008FD0006C2907F788004C2907F507E00120CF764
:10090D00D29074172512F8C000E625E0D000F67FCE
:10091D00327E00120CF70513E513C3940840C90588
:0E092D0012E512C3940340BDD2A7D2A6C29316
:01093B002299
:10093C00D293C2A6C2A77517C87518E07519C5124F
:10094C000B5EE4F512E4F51374172512F8E630E7A4
:10095C0006C2907F788004C2907F507E00120CF704
:10096C00D29074172512F8C000E625E0D000F67F6F
:10097C00327E00120CF70513E513C3940840C90529
:0E098C0012E512C3940340BDD2A7D2A6C293B7
:01099A00223A
:10099B0020910D055BE55BB47803E4F55BC20022A7
:1009AB00200038D200E55BD394234012E55BD3944F
:1009BB0050500BE52B25E0F52B532BFE8010E55B00
:1009CB00D394504010E52B25E0F52B432B01053E2E
:1009DB00E4F55A8002055AE4F55B22055AE55AC341
:0C09EB00943C4007E4F53ED200F53622B3
:100BA000E53E64087030F53E742F2536F8A62BE537
:100BB000367009E52FB4C80475360122E536B40154
:100BC00009E530B4E00475360222E536B40204D2F9
:070BD000078000E4F5362266
:1004FA008E128F13C3E51394DAE5129402400CD2DC
:10050A00947F1C120C0D7F32020597C3E51394DA0F
:10051A00E51294025016C3E51394CDE512940240F5
:10052A000BD2947F0A120C0D7F508061C3E513949D
:10053A00CDE51294025016C3E51394C3E512940252
:10054A00400BD2947F09120C0D7F508040C3E513F3
:10055A0094C3E51294025016C3E51394B7E51294B6
:10056A0002400BD2947F08120C0D7F50801FC3E506
:10057A001394B7E5129402501CC3E51394ACE51228
:10058A0094024011D2947F07120C0D7F507E001204
:10059A000CABC29422C3E51394ACE5129402500347
:0405AA00120D7C2290
:0E0DD100C2A2D2A3120C42D2A2D2A3C2852289
:0E0DDF00D285D2A2C2A3120C42D2A2D2A3226B
:10044600C105C106C113C115C102C116C10CC1093E
:10045600022D0000C112C10FC11101530001540049
:10046600C10BC18D012A00C11801400001370001EE
:10047600450002410000015100013D000255000007
:10048600C108C10AC101012400023B000001480065
:10049600015200C10E013F00012600015C00012C43
:1004A60000024F0000072F00000000000000C107F7
:1004B600013600012B00013E00C180015A00015B9C
:1004C60000014B0001490002580000C104014C0024
:1004D60001570001290002390000C117014A000135
:1004E6003800C114012500C10302270000C1100213
:0304F6004D0000B6
:03000B0002001ED2
:10001E00C0E0C0F0C083C082C0D075D000C000C0A8
:10002E0001C002C003C004C005C006C00785438CD2
:10003E0085468A0550E5507002054FC394B8E54FCA
:10004E00940B4042754F007550007F061206DA8EF3
:10005E00398F3A300B0CE52CC39405500512093C30
:10006E00052C30180CE55CC3940550051208DD050F
:10007E005C301412E525C39404500B30A40812080A
:10008E001F120DC0052520A413E54C700F7F05FE31
:10009E00120CAB20A406120A96754C0120101F30CC
:1000AE00A41CE54CB401177F057E00120CAB30A4E6
:1000BE000DAF3AAE391204FA754C00120D553010D0
:1000CE0019054EE54E7002054DD394B8E54D940BCF
:1000DE004008C210754D00754E0030800320870811
:1000EE00D210754D00754E00300F22E553C39404A7
:1000FE00501BD20530A40612087E120D9E0553E544
:10010E0053C394044007755300C20FC20530112229
:10011E00E554C39404501BD20530A40612087E1277
:10012E000D3E0554E554C394044007755400C211A6
:10013E00C20520840302024B20830302024B20A53A
:10014E000302024BE5241460311460702402600334
:10015E0002021730800320871B2005180548E5484A
:10016E00C394025003020217754800752401120D44
:10017E008D02021775480002021730800320871780
:10018E000537E537C39402401175370075240275A3
:10019E004500120D278003753700053CE53C7002C3
:1001AE00053BC394A0E53B940F405E752400753764
:1001BE0000754800753B00753C00804D3080032073
:1001CE008712053DE53DC39402400C753D00D20FEC
:1001DE00D2118003753D000542E54270020541C310
:1001EE0094A0E541940F40217524007548007537A1
:1001FE0000753B00753C0075410075420075550356
:10020E00755620753D00755100208116E538C39452
:10021E0033500F0538E53894324007D20FD211759E
:10022E003833C3E53994015004D2148010D3E53A23
:10023E009400E53994024005C21475250030154826
:10024E002084170549E549C394034018D218C20B00
:10025E0075490B20040ED201800AC218755C007518
:10026E004900C201208317054BE54BC39403401888
:10027E00D20BC218754B0B20040ED201800AC20B92
:10028E00752C00754B00C20130013C0559E55970C3
:10029E00020558C394A0E558940F402BC20175581F
:1002AE0000755900D2047524007548007537007525
:1002BE003B00753C0075410075420075550375563F
:1002CE0020753D00755100D007D006D005D004D062
:1002DE0003D002D001D000D0D0D082D083D0F0D0C5
:0202EE00E032FC
:03001B000205AE2D
:1005AE00C0E0C0F0C083C082C0D075D000C000C013
:1005BE0001C002C003C004C005C006C00785448D3B
:1005CE0085478B12099B120BA0300759C207E531E4
:1005DE00243F7051E552D39406500320A405D21740
:1005EE00755200752A00C2A5C215C20BC218752419
:1005FE0000754800753700753B00753C007541006D
:10060E00754200755500755600753D00755100C256
:10061E0005C20F755300C211755400C20175380022
:10062E00C214752500D007D006D005D004D003D053
:10063E0002D001D000D0D0D082D083D0F0D0E03222
:04074E008C088D097D
:100752007E007C2B7D3312040DE47B0CFAF9F81237
:10076200037B8F0D8E0C8D0B8C0AC3E49FFFE49EDE
:10077200F5438F46AE08AF09EE3395E0FDFCE47B0E
:100782000BFAF9F81202F0E47B0CFAF9F812037B87
:100792008F118E108D0F8C0EC3E49FFFE49EF544E3
:1007A2008F4775891185438C85468A85448D854797
:0D07B2008BD2A9D28CD2ABD28ED2BBD2AFEB
:0107BF002217
:04000E004387012201
:100D5500120DDF120C8ED215D2A5E4F524F5487FCD
:050D650014FE020CABBE
:100A9600C215C2A5120DD1120DAFAF3AAE3912046E
:100AA600FA1209F7E4F552C20BC218F524F548F517
:100AB60037F53BF53CF541F542F555F556F53DF56F
:100AC60051C205C20FF553C211F554C201F538C221
:040AD60014F52522CC
:10065A00020BD7E493A3F8E493A34003F68001F2D4
:10066A0008DFF48029E493A3F85407240CC8C333A1
:10067A00C4540F4420C8834004F456800146F6DF70
:10068A00E4800B010204081020408090043AE47EC2
:10069A00019360BCA3FF543F30E509541FFEE49365
:1006AA00A360010ECF54C025E060A840B8E493A32C
:1006BA00FAE493A3F8E493A3C8C582C8CAC583CA57
:1006CA00F0A3C8C582C8CAC583CADFE9DEE780BE0F
:0104F9000002
:1002F000E88FF0A4CC8BF0A42CFCE98EF0A42CFCAD
:100300008AF0EDA42CFCEA8EF0A4CDA8F08BF0A42A
:100310002DCC3825F0FDE98FF0A42CCD35F0FCEB89
:100320008EF0A4FEA9F0EB8FF0A4CFC5F02ECD394E
:0F033000FEE43CFCEAA42DCE35F0FDE43CFC22BB
:10033F0075F008758200EF2FFFEE33FECD33CDCC75
:10034F0033CCC58233C5829BED9AEC99E5829840F8
:10035F000CF582EE9BFEED9AFDEC99FC0FD5F0D6D5
:10036F00E4CEFBE4CDFAE4CCF9A88222B800C1B9FF
:10037F000059BA002DEC8BF084CFCECDFCE5F0CB3D
:10038F00F97818EF2FFFEE33FEED33FDEC33FCEB76
:10039F0033FB10D703994004EB99FB0FD8E5E4F931
:1003AF00FA227818EF2FFFEE33FEED33FDEC33FC1E
:1003BF00C933C910D7059BE99A4007EC9BFCE99A12
:1003CF00F90FD8E0E4C9FAE4CCFB2275F010EF2F57
:1003DF00FFEE33FEED33FDCC33CCC833C810D70757
:1003EF009BEC9AE899400AED9BFDEC9AFCE899F892
:0E03FF000FD5F0DAE4CDFBE4CCFAE4C8F92225
:10040D00EC8EF0A4CCC5F0CCCDF8EFA4CEC5F02D7C
:10041D00FDE43CFCE8A42EC8C5F03DFDE43CFCEF3A
:0D042D00A4FFE5F028FEE43DFDE43CFC22C8
:00000001FF
